{
  "_format": "hh-sol-artifact-1",
  "contractName": "ImplementationV2",
  "sourceName": "contracts/ImplementationV2.sol",
  "abi": [
    {
      "inputs": [],
      "name": "AccessControlBadConfirmation",
      "type": "error"
    },
    {
      "inputs": [
        {
          "internalType": "address",
          "name": "account",
          "type": "address"
        },
        {
          "internalType": "bytes32",
          "name": "neededRole",
          "type": "bytes32"
        }
      ],
      "name": "AccessControlUnauthorizedAccount",
      "type": "error"
    },
    {
      "inputs": [
        {
          "internalType": "address",
          "name": "target",
          "type": "address"
        }
      ],
      "name": "AddressEmptyCode",
      "type": "error"
    },
    {
      "inputs": [
        {
          "internalType": "address",
          "name": "implementation",
          "type": "address"
        }
      ],
      "name": "ERC1967InvalidImplementation",
      "type": "error"
    },
    {
      "inputs": [],
      "name": "ERC1967NonPayable",
      "type": "error"
    },
    {
      "inputs": [],
      "name": "FailedCall",
      "type": "error"
    },
    {
      "inputs": [],
      "name": "InvalidInitialization",
      "type": "error"
    },
    {
      "inputs": [],
      "name": "NotInitializing",
      "type": "error"
    },
    {
      "inputs": [
        {
          "internalType": "address",
          "name": "owner",
          "type": "address"
        }
      ],
      "name": "OwnableInvalidOwner",
      "type": "error"
    },
    {
      "inputs": [
        {
          "internalType": "address",
          "name": "account",
          "type": "address"
        }
      ],
      "name": "OwnableUnauthorizedAccount",
      "type": "error"
    },
    {
      "inputs": [],
      "name": "UUPSUnauthorizedCallContext",
      "type": "error"
    },
    {
      "inputs": [
        {
          "internalType": "bytes32",
          "name": "slot",
          "type": "bytes32"
        }
      ],
      "name": "UUPSUnsupportedProxiableUUID",
      "type": "error"
    },
    {
      "anonymous": false,
      "inputs": [
        {
          "indexed": false,
          "internalType": "uint64",
          "name": "version",
          "type": "uint64"
        }
      ],
      "name": "Initialized",
      "type": "event"
    },
    {
      "anonymous": false,
      "inputs": [
        {
          "indexed": true,
          "internalType": "address",
          "name": "previousOwner",
          "type": "address"
        },
        {
          "indexed": true,
          "internalType": "address",
          "name": "newOwner",
          "type": "address"
        }
      ],
      "name": "OwnershipTransferred",
      "type": "event"
    },
    {
      "anonymous": false,
      "inputs": [
        {
          "indexed": true,
          "internalType": "bytes32",
          "name": "role",
          "type": "bytes32"
        },
        {
          "indexed": true,
          "internalType": "bytes32",
          "name": "previousAdminRole",
          "type": "bytes32"
        },
        {
          "indexed": true,
          "internalType": "bytes32",
          "name": "newAdminRole",
          "type": "bytes32"
        }
      ],
      "name": "RoleAdminChanged",
      "type": "event"
    },
    {
      "anonymous": false,
      "inputs": [
        {
          "indexed": true,
          "internalType": "address",
          "name": "demandeur",
          "type": "address"
        },
        {
          "indexed": false,
          "internalType": "bytes32",
          "name": "role",
          "type": "bytes32"
        },
        {
          "indexed": false,
          "internalType": "bytes32",
          "name": "siret",
          "type": "bytes32"
        }
      ],
      "name": "RoleDemande",
      "type": "event"
    },
    {
      "anonymous": false,
      "inputs": [
        {
          "indexed": true,
          "internalType": "bytes32",
          "name": "role",
          "type": "bytes32"
        },
        {
          "indexed": true,
          "internalType": "address",
          "name": "account",
          "type": "address"
        },
        {
          "indexed": true,
          "internalType": "address",
          "name": "sender",
          "type": "address"
        }
      ],
      "name": "RoleGranted",
      "type": "event"
    },
    {
      "anonymous": false,
      "inputs": [
        {
          "indexed": true,
          "internalType": "bytes32",
          "name": "role",
          "type": "bytes32"
        },
        {
          "indexed": true,
          "internalType": "address",
          "name": "account",
          "type": "address"
        },
        {
          "indexed": true,
          "internalType": "address",
          "name": "sender",
          "type": "address"
        }
      ],
      "name": "RoleRevoked",
      "type": "event"
    },
    {
      "anonymous": false,
      "inputs": [
        {
          "indexed": true,
          "internalType": "address",
          "name": "implementation",
          "type": "address"
        }
      ],
      "name": "Upgraded",
      "type": "event"
    },
    {
      "inputs": [],
      "name": "DEFAULT_ADMIN_ROLE",
      "outputs": [
        {
          "internalType": "bytes32",
          "name": "",
          "type": "bytes32"
        }
      ],
      "stateMutability": "view",
      "type": "function"
    },
    {
      "inputs": [],
      "name": "DISTRIBUTEUR_ROLE",
      "outputs": [
        {
          "internalType": "bytes32",
          "name": "",
          "type": "bytes32"
        }
      ],
      "stateMutability": "view",
      "type": "function"
    },
    {
      "inputs": [],
      "name": "PRODUCTEUR_ROLE",
      "outputs": [
        {
          "internalType": "bytes32",
          "name": "",
          "type": "bytes32"
        }
      ],
      "stateMutability": "view",
      "type": "function"
    },
    {
      "inputs": [],
      "name": "TRANSFORMATEUR_ROLE",
      "outputs": [
        {
          "internalType": "bytes32",
          "name": "",
          "type": "bytes32"
        }
      ],
      "stateMutability": "view",
      "type": "function"
    },
    {
      "inputs": [],
      "name": "TRANSPORTEUR_ROLE",
      "outputs": [
        {
          "internalType": "bytes32",
          "name": "",
          "type": "bytes32"
        }
      ],
      "stateMutability": "view",
      "type": "function"
    },
    {
      "inputs": [],
      "name": "UPGRADE_INTERFACE_VERSION",
      "outputs": [
        {
          "internalType": "string",
          "name": "",
          "type": "string"
        }
      ],
      "stateMutability": "view",
      "type": "function"
    },
    {
      "inputs": [
        {
          "internalType": "address",
          "name": "user",
          "type": "address"
        },
        {
          "internalType": "bytes32",
          "name": "role",
          "type": "bytes32"
        }
      ],
      "name": "accorderRole",
      "outputs": [],
      "stateMutability": "nonpayable",
      "type": "function"
    },
    {
      "inputs": [
        {
          "internalType": "bytes32",
          "name": "role",
          "type": "bytes32"
        },
        {
          "internalType": "bytes32",
          "name": "siret",
          "type": "bytes32"
        }
      ],
      "name": "demanderRole",
      "outputs": [],
      "stateMutability": "nonpayable",
      "type": "function"
    },
    {
      "inputs": [
        {
          "internalType": "bytes32",
          "name": "role",
          "type": "bytes32"
        }
      ],
      "name": "getRoleAdmin",
      "outputs": [
        {
          "internalType": "bytes32",
          "name": "",
          "type": "bytes32"
        }
      ],
      "stateMutability": "view",
      "type": "function"
    },
    {
      "inputs": [],
      "name": "getValue",
      "outputs": [
        {
          "internalType": "uint256",
          "name": "",
          "type": "uint256"
        }
      ],
      "stateMutability": "view",
      "type": "function"
    },
    {
      "inputs": [
        {
          "internalType": "bytes32",
          "name": "role",
          "type": "bytes32"
        },
        {
          "internalType": "address",
          "name": "account",
          "type": "address"
        }
      ],
      "name": "grantRole",
      "outputs": [],
      "stateMutability": "nonpayable",
      "type": "function"
    },
    {
      "inputs": [
        {
          "internalType": "bytes32",
          "name": "role",
          "type": "bytes32"
        },
        {
          "internalType": "address",
          "name": "account",
          "type": "address"
        }
      ],
      "name": "hasRole",
      "outputs": [
        {
          "internalType": "bool",
          "name": "",
          "type": "bool"
        }
      ],
      "stateMutability": "view",
      "type": "function"
    },
    {
      "inputs": [],
      "name": "incrementValue",
      "outputs": [],
      "stateMutability": "nonpayable",
      "type": "function"
    },
    {
      "inputs": [],
      "name": "initialize",
      "outputs": [],
      "stateMutability": "nonpayable",
      "type": "function"
    },
    {
      "inputs": [],
      "name": "owner",
      "outputs": [
        {
          "internalType": "address",
          "name": "",
          "type": "address"
        }
      ],
      "stateMutability": "view",
      "type": "function"
    },
    {
      "inputs": [],
      "name": "proxiableUUID",
      "outputs": [
        {
          "internalType": "bytes32",
          "name": "",
          "type": "bytes32"
        }
      ],
      "stateMutability": "view",
      "type": "function"
    },
    {
      "inputs": [],
      "name": "renounceOwnership",
      "outputs": [],
      "stateMutability": "nonpayable",
      "type": "function"
    },
    {
      "inputs": [
        {
          "internalType": "bytes32",
          "name": "role",
          "type": "bytes32"
        },
        {
          "internalType": "address",
          "name": "callerConfirmation",
          "type": "address"
        }
      ],
      "name": "renounceRole",
      "outputs": [],
      "stateMutability": "nonpayable",
      "type": "function"
    },
    {
      "inputs": [
        {
          "internalType": "bytes32",
          "name": "role",
          "type": "bytes32"
        },
        {
          "internalType": "address",
          "name": "account",
          "type": "address"
        }
      ],
      "name": "revokeRole",
      "outputs": [],
      "stateMutability": "nonpayable",
      "type": "function"
    },
    {
      "inputs": [
        {
          "internalType": "uint256",
          "name": "_value",
          "type": "uint256"
        }
      ],
      "name": "setValue",
      "outputs": [],
      "stateMutability": "nonpayable",
      "type": "function"
    },
    {
      "inputs": [
        {
          "internalType": "bytes4",
          "name": "interfaceId",
          "type": "bytes4"
        }
      ],
      "name": "supportsInterface",
      "outputs": [
        {
          "internalType": "bool",
          "name": "",
          "type": "bool"
        }
      ],
      "stateMutability": "view",
      "type": "function"
    },
    {
      "inputs": [
        {
          "internalType": "address",
          "name": "newOwner",
          "type": "address"
        }
      ],
      "name": "transferOwnership",
      "outputs": [],
      "stateMutability": "nonpayable",
      "type": "function"
    },
    {
      "inputs": [
        {
          "internalType": "address",
          "name": "newImplementation",
          "type": "address"
        },
        {
          "internalType": "bytes",
          "name": "data",
          "type": "bytes"
        }
      ],
      "name": "upgradeToAndCall",
      "outputs": [],
      "stateMutability": "payable",
      "type": "function"
    },
    {
      "inputs": [],
      "name": "version",
      "outputs": [
        {
          "internalType": "string",
          "name": "",
          "type": "string"
        }
      ],
      "stateMutability": "pure",
      "type": "function"
    }
  ],
  "bytecode": "0x60a0806040523460295730608052610f85908161002f82396080518181816105c9015261069d0152f35b600080fdfe608080604052600436101561001357600080fd5b60003560e01c90816301ffc9a714610a125750806320965255146109f4578063248a9ca3146109ce5780632f2ff15d146109a257806332031caa1461096757806333e170681461092c57806336568abe146108e65780633bfd7fd31461089c57806345c3ad32146108615780634f1ef2861461062057806352d1902d146105b657806354fd4d501461057a5780635524107714610559578063715018a6146104ef5780638129fc1c146103845780638da5cb5b1461034e57806391d14854146102f45780639dd161e6146102b9578063a217fddf1461029d578063ad3cb1cc1461025a578063d547741f14610229578063d8826514146101a0578063f080d5dc146101575763f2fde38b1461012757600080fd5b3461015257602036600319011261015257610150610143610a7b565b61014b610e0a565b610b4f565b005b600080fd5b3461015257604036600319011261015257604051600435815260243560208201527f41cb13aaeb4e93188c46ae19705b27a649d4e3f673f22ade808b8463e204549960403392a2005b34610152576040366003190112610152576101b9610a7b565b3360009081527fb7db2dd08fcb62d0c9e08c51941cae53c267786a0b75803fb7960902fc8ef97d6020526040902054602435919060ff161561020f578161020a61020561015094610b2e565b610bc5565b610cc1565b63e2517d3f60e01b60005233600452600060245260446000fd5b3461015257604036600319011261015257610150600435610248610a65565b9061025561020582610b2e565b610d6a565b3461015257600036600319011261015257610299604080519061027d8183610a91565b60058252640352e302e360dc1b60208301525191829182610ae5565b0390f35b3461015257600036600319011261015257602060405160008152f35b346101525760003660031901126101525760206040517f78163ed90355629b19b39027a4f084c5b980c7566e42930c4bbc98a8acafb9da8152f35b346101525760403660031901126101525761030d610a65565b600435600052600080516020610f1083398151915260205260406000209060018060a01b0316600052602052602060ff604060002054166040519015158152f35b3461015257600036600319011261015257600080516020610ed0833981519152546040516001600160a01b039091168152602090f35b3461015257600036600319011261015257600080516020610f308339815191525460ff8160401c16159067ffffffffffffffff8116801590816104e7575b60011490816104dd575b1590816104d4575b506104c35767ffffffffffffffff198116600117600080516020610f308339815191525581610496575b50610407610e40565b61040f610e40565b61041833610b4f565b610420610e40565b610428610e40565b600160005561043633610c0f565b5061043d57005b68ff000000000000000019600080516020610f308339815191525416600080516020610f30833981519152557fc7f505b2f371ae2175ee4913f4499e1f2633a7b5936321eed1cdaeb6115181d2602060405160018152a1005b68ffffffffffffffffff19166801000000000000000117600080516020610f3083398151915255816103fe565b63f92ee8a960e01b60005260046000fd5b905015836103d4565b303b1591506103cc565b8391506103c2565b3461015257600036600319011261015257610508610e0a565b600080516020610ed083398151915280546001600160a01b031981169091556000906001600160a01b03167f8be0079c531659141344cd1fd0a4f28419497f9722a3daafe3b4186f6b6457e08280a3005b3461015257602036600319011261015257610572610e0a565b600435600055005b3461015257600036600319011261015257610299604080519061059d8183610a91565b60028252612b1960f11b60208301525191829182610ae5565b34610152576000366003190112610152577f00000000000000000000000000000000000000000000000000000000000000006001600160a01b0316300361060f576020604051600080516020610ef08339815191528152f35b63703e46dd60e11b60005260046000fd5b604036600319011261015257610634610a7b565b6024359067ffffffffffffffff821161015257366023830112156101525781600401359061066182610ac9565b9161066f6040519384610a91565b8083526020830193366024838301011161015257816000926024602093018737840101526001600160a01b037f00000000000000000000000000000000000000000000000000000000000000001630811490811561083e575b5061060f576106d5610e0a565b6040516352d1902d60e01b81526001600160a01b0382169390602081600481885afa6000918161080a575b5061071a5784634c9c8ce360e01b60005260045260246000fd5b80600080516020610ef08339815191528692036107f65750823b156107e257600080516020610ef083398151915280546001600160a01b031916821790557fbc7cd75a20ee27fd9adebab32041f755214dbc6bffa90cc0225b39da2e5c2d3b600080a28251156107c75760008091610150945190845af43d156107bf573d916107a283610ac9565b926107b06040519485610a91565b83523d6000602085013e610e6e565b606091610e6e565b505050346107d157005b63b398979f60e01b60005260046000fd5b634c9c8ce360e01b60005260045260246000fd5b632a87526960e21b60005260045260246000fd5b9091506020813d602011610836575b8161082660209383610a91565b8101031261015257519086610700565b3d9150610819565b600080516020610ef0833981519152546001600160a01b031614159050846106c8565b346101525760003660031901126101525760206040517f9acc82eb0f989815bf5d34897070c1358afa31c7682f8082652708374a8121dc8152f35b34610152576000366003190112610152576108b5610e0a565b600054600181018091116108d0576108cb610e0a565b600055005b634e487b7160e01b600052601160045260246000fd5b34610152576040366003190112610152576108ff610a65565b336001600160a01b0382160361091b5761015090600435610d6a565b63334bd91960e11b60005260046000fd5b346101525760003660031901126101525760206040517f4e94a7c81bd91b9fc4a2ac6f0ec19a6dd073138ef668d9cf1908c54389d5ae6f8152f35b346101525760003660031901126101525760206040517f9b707cd1e6b1b195eadf2d4424d4d6e87acfd23b07c821889e37004532017db48152f35b34610152576040366003190112610152576101506004356109c1610a65565b9061020a61020582610b2e565b346101525760203660031901126101525760206109ec600435610b2e565b604051908152f35b34610152576000366003190112610152576020600054604051908152f35b34610152576020366003190112610152576004359063ffffffff60e01b821680920361015257602091637965db0b60e01b8114908115610a54575b5015158152f35b6301ffc9a760e01b14905083610a4d565b602435906001600160a01b038216820361015257565b600435906001600160a01b038216820361015257565b90601f8019910116810190811067ffffffffffffffff821117610ab357604052565b634e487b7160e01b600052604160045260246000fd5b67ffffffffffffffff8111610ab357601f01601f191660200190565b91909160208152825180602083015260005b818110610b18575060409293506000838284010152601f8019910116010190565b8060208092870101516040828601015201610af7565b600052600080516020610f1083398151915260205260016040600020015490565b6001600160a01b03168015610baf57600080516020610ed083398151915280546001600160a01b0319811683179091556001600160a01b03167f8be0079c531659141344cd1fd0a4f28419497f9722a3daafe3b4186f6b6457e0600080a3565b631e4fbdf760e01b600052600060045260246000fd5b6000818152600080516020610f108339815191526020908152604080832033845290915290205460ff1615610bf75750565b63e2517d3f60e01b6000523360045260245260446000fd5b6001600160a01b03811660009081527fb7db2dd08fcb62d0c9e08c51941cae53c267786a0b75803fb7960902fc8ef97d602052604090205460ff16610cbb576001600160a01b031660008181527fb7db2dd08fcb62d0c9e08c51941cae53c267786a0b75803fb7960902fc8ef97d60205260408120805460ff191660011790553391907f2f8788117e7eff1d82e926ec794901d17c78024a50270940304540a733656f0d8180a4600190565b50600090565b6000818152600080516020610f10833981519152602090815260408083206001600160a01b038616845290915290205460ff16610d63576000818152600080516020610f10833981519152602090815260408083206001600160a01b0395909516808452949091528120805460ff19166001179055339291907f2f8788117e7eff1d82e926ec794901d17c78024a50270940304540a733656f0d9080a4600190565b5050600090565b6000818152600080516020610f10833981519152602090815260408083206001600160a01b038616845290915290205460ff1615610d63576000818152600080516020610f10833981519152602090815260408083206001600160a01b0395909516808452949091528120805460ff19169055339291907ff6391f5c32d9c69d2a47ea670b442974b53935d1edc7fd64eb21e047a839171b9080a4600190565b600080516020610ed0833981519152546001600160a01b03163303610e2b57565b63118cdaa760e01b6000523360045260246000fd5b60ff600080516020610f308339815191525460401c1615610e5d57565b631afcd79f60e31b60005260046000fd5b90610e945750805115610e8357805190602001fd5b63d6bda27560e01b60005260046000fd5b81511580610ec6575b610ea5575090565b639996b31560e01b60009081526001600160a01b0391909116600452602490fd5b50803b15610e9d56fe9016d09d72d40fdae2fd8ceac6b6234c7706214fd39c1cd1e609a0528c199300360894a13ba1a3210667c828492db98dca3e2076cc3735a920a3ca505d382bbc02dd7bc7dec4dceedda775e58dd541e08a116c6c53815c0bd028192f7b626800f0c57e16840df040f15088dc2f81fe391c3923bec73e23a9662efc9c229c6a00a2646970667358221220ccece33fb9819339ef506adc06ebfb8f7c9eaf219c2b4108c8ad64ee24e5ebd164736f6c634300081c0033",
  "linkReferences": {},
  "deployedLinkReferences": {}
}