{
  "_format": "hh-sol-artifact-1",
  "contractName": "ImplementationV2",
  "sourceName": "contracts/ImplementationV2.sol",
  "abi": [
    {
      "inputs": [],
      "name": "AccessControlBadConfirmation",
      "type": "error"
    },
    {
      "inputs": [
        {
          "internalType": "address",
          "name": "account",
          "type": "address"
        },
        {
          "internalType": "bytes32",
          "name": "neededRole",
          "type": "bytes32"
        }
      ],
      "name": "AccessControlUnauthorizedAccount",
      "type": "error"
    },
    {
      "inputs": [
        {
          "internalType": "address",
          "name": "target",
          "type": "address"
        }
      ],
      "name": "AddressEmptyCode",
      "type": "error"
    },
    {
      "inputs": [
        {
          "internalType": "address",
          "name": "implementation",
          "type": "address"
        }
      ],
      "name": "ERC1967InvalidImplementation",
      "type": "error"
    },
    {
      "inputs": [],
      "name": "ERC1967NonPayable",
      "type": "error"
    },
    {
      "inputs": [],
      "name": "FailedCall",
      "type": "error"
    },
    {
      "inputs": [],
      "name": "InvalidInitialization",
      "type": "error"
    },
    {
      "inputs": [],
      "name": "NotInitializing",
      "type": "error"
    },
    {
      "inputs": [
        {
          "internalType": "address",
          "name": "owner",
          "type": "address"
        }
      ],
      "name": "OwnableInvalidOwner",
      "type": "error"
    },
    {
      "inputs": [
        {
          "internalType": "address",
          "name": "account",
          "type": "address"
        }
      ],
      "name": "OwnableUnauthorizedAccount",
      "type": "error"
    },
    {
      "inputs": [],
      "name": "UUPSUnauthorizedCallContext",
      "type": "error"
    },
    {
      "inputs": [
        {
          "internalType": "bytes32",
          "name": "slot",
          "type": "bytes32"
        }
      ],
      "name": "UUPSUnsupportedProxiableUUID",
      "type": "error"
    },
    {
      "anonymous": false,
      "inputs": [
        {
          "indexed": false,
          "internalType": "uint64",
          "name": "version",
          "type": "uint64"
        }
      ],
      "name": "Initialized",
      "type": "event"
    },
    {
      "anonymous": false,
      "inputs": [
        {
          "indexed": true,
          "internalType": "address",
          "name": "previousOwner",
          "type": "address"
        },
        {
          "indexed": true,
          "internalType": "address",
          "name": "newOwner",
          "type": "address"
        }
      ],
      "name": "OwnershipTransferred",
      "type": "event"
    },
    {
      "anonymous": false,
      "inputs": [
        {
          "indexed": true,
          "internalType": "bytes32",
          "name": "role",
          "type": "bytes32"
        },
        {
          "indexed": true,
          "internalType": "bytes32",
          "name": "previousAdminRole",
          "type": "bytes32"
        },
        {
          "indexed": true,
          "internalType": "bytes32",
          "name": "newAdminRole",
          "type": "bytes32"
        }
      ],
      "name": "RoleAdminChanged",
      "type": "event"
    },
    {
      "anonymous": false,
      "inputs": [
        {
          "indexed": true,
          "internalType": "address",
          "name": "demandeur",
          "type": "address"
        },
        {
          "indexed": false,
          "internalType": "bytes32",
          "name": "role",
          "type": "bytes32"
        },
        {
          "indexed": false,
          "internalType": "bytes32",
          "name": "siret",
          "type": "bytes32"
        }
      ],
      "name": "RoleDemande",
      "type": "event"
    },
    {
      "anonymous": false,
      "inputs": [
        {
          "indexed": true,
          "internalType": "bytes32",
          "name": "role",
          "type": "bytes32"
        },
        {
          "indexed": true,
          "internalType": "address",
          "name": "account",
          "type": "address"
        },
        {
          "indexed": true,
          "internalType": "address",
          "name": "sender",
          "type": "address"
        }
      ],
      "name": "RoleGranted",
      "type": "event"
    },
    {
      "anonymous": false,
      "inputs": [
        {
          "indexed": true,
          "internalType": "bytes32",
          "name": "role",
          "type": "bytes32"
        },
        {
          "indexed": true,
          "internalType": "address",
          "name": "account",
          "type": "address"
        },
        {
          "indexed": true,
          "internalType": "address",
          "name": "sender",
          "type": "address"
        }
      ],
      "name": "RoleRevoked",
      "type": "event"
    },
    {
      "anonymous": false,
      "inputs": [
        {
          "indexed": true,
          "internalType": "address",
          "name": "implementation",
          "type": "address"
        }
      ],
      "name": "Upgraded",
      "type": "event"
    },
    {
      "inputs": [],
      "name": "DEFAULT_ADMIN_ROLE",
      "outputs": [
        {
          "internalType": "bytes32",
          "name": "",
          "type": "bytes32"
        }
      ],
      "stateMutability": "view",
      "type": "function"
    },
    {
      "inputs": [],
      "name": "DISTRIBUTEUR_ROLE",
      "outputs": [
        {
          "internalType": "bytes32",
          "name": "",
          "type": "bytes32"
        }
      ],
      "stateMutability": "view",
      "type": "function"
    },
    {
      "inputs": [],
      "name": "PRODUCTEUR_ROLE",
      "outputs": [
        {
          "internalType": "bytes32",
          "name": "",
          "type": "bytes32"
        }
      ],
      "stateMutability": "view",
      "type": "function"
    },
    {
      "inputs": [],
      "name": "TRANSFORMATEUR_ROLE",
      "outputs": [
        {
          "internalType": "bytes32",
          "name": "",
          "type": "bytes32"
        }
      ],
      "stateMutability": "view",
      "type": "function"
    },
    {
      "inputs": [],
      "name": "TRANSPORTEUR_ROLE",
      "outputs": [
        {
          "internalType": "bytes32",
          "name": "",
          "type": "bytes32"
        }
      ],
      "stateMutability": "view",
      "type": "function"
    },
    {
      "inputs": [],
      "name": "UPGRADE_INTERFACE_VERSION",
      "outputs": [
        {
          "internalType": "string",
          "name": "",
          "type": "string"
        }
      ],
      "stateMutability": "view",
      "type": "function"
    },
    {
      "inputs": [
        {
          "internalType": "address",
          "name": "user",
          "type": "address"
        },
        {
          "internalType": "bytes32",
          "name": "role",
          "type": "bytes32"
        }
      ],
      "name": "accorderRole",
      "outputs": [],
      "stateMutability": "nonpayable",
      "type": "function"
    },
    {
      "inputs": [
        {
          "internalType": "bytes32",
          "name": "role",
          "type": "bytes32"
        },
        {
          "internalType": "bytes32",
          "name": "siret",
          "type": "bytes32"
        }
      ],
      "name": "demanderRole",
      "outputs": [],
      "stateMutability": "nonpayable",
      "type": "function"
    },
    {
      "inputs": [
        {
          "internalType": "bytes32",
          "name": "role",
          "type": "bytes32"
        }
      ],
      "name": "getRoleAdmin",
      "outputs": [
        {
          "internalType": "bytes32",
          "name": "",
          "type": "bytes32"
        }
      ],
      "stateMutability": "view",
      "type": "function"
    },
    {
      "inputs": [],
      "name": "getValue",
      "outputs": [
        {
          "internalType": "uint256",
          "name": "",
          "type": "uint256"
        }
      ],
      "stateMutability": "view",
      "type": "function"
    },
    {
      "inputs": [
        {
          "internalType": "bytes32",
          "name": "role",
          "type": "bytes32"
        },
        {
          "internalType": "address",
          "name": "account",
          "type": "address"
        }
      ],
      "name": "grantRole",
      "outputs": [],
      "stateMutability": "nonpayable",
      "type": "function"
    },
    {
      "inputs": [
        {
          "internalType": "bytes32",
          "name": "role",
          "type": "bytes32"
        },
        {
          "internalType": "address",
          "name": "account",
          "type": "address"
        }
      ],
      "name": "hasRole",
      "outputs": [
        {
          "internalType": "bool",
          "name": "",
          "type": "bool"
        }
      ],
      "stateMutability": "view",
      "type": "function"
    },
    {
      "inputs": [],
      "name": "incrementValue",
      "outputs": [],
      "stateMutability": "nonpayable",
      "type": "function"
    },
    {
      "inputs": [],
      "name": "initialize",
      "outputs": [],
      "stateMutability": "nonpayable",
      "type": "function"
    },
    {
      "inputs": [],
      "name": "owner",
      "outputs": [
        {
          "internalType": "address",
          "name": "",
          "type": "address"
        }
      ],
      "stateMutability": "view",
      "type": "function"
    },
    {
      "inputs": [],
      "name": "proxiableUUID",
      "outputs": [
        {
          "internalType": "bytes32",
          "name": "",
          "type": "bytes32"
        }
      ],
      "stateMutability": "view",
      "type": "function"
    },
    {
      "inputs": [],
      "name": "renounceOwnership",
      "outputs": [],
      "stateMutability": "nonpayable",
      "type": "function"
    },
    {
      "inputs": [
        {
          "internalType": "bytes32",
          "name": "role",
          "type": "bytes32"
        },
        {
          "internalType": "address",
          "name": "callerConfirmation",
          "type": "address"
        }
      ],
      "name": "renounceRole",
      "outputs": [],
      "stateMutability": "nonpayable",
      "type": "function"
    },
    {
      "inputs": [
        {
          "internalType": "bytes32",
          "name": "role",
          "type": "bytes32"
        },
        {
          "internalType": "address",
          "name": "account",
          "type": "address"
        }
      ],
      "name": "revokeRole",
      "outputs": [],
      "stateMutability": "nonpayable",
      "type": "function"
    },
    {
      "inputs": [
        {
          "internalType": "uint256",
          "name": "_value",
          "type": "uint256"
        }
      ],
      "name": "setValue",
      "outputs": [],
      "stateMutability": "nonpayable",
      "type": "function"
    },
    {
      "inputs": [
        {
          "internalType": "bytes4",
          "name": "interfaceId",
          "type": "bytes4"
        }
      ],
      "name": "supportsInterface",
      "outputs": [
        {
          "internalType": "bool",
          "name": "",
          "type": "bool"
        }
      ],
      "stateMutability": "view",
      "type": "function"
    },
    {
      "inputs": [
        {
          "internalType": "address",
          "name": "newOwner",
          "type": "address"
        }
      ],
      "name": "transferOwnership",
      "outputs": [],
      "stateMutability": "nonpayable",
      "type": "function"
    },
    {
      "inputs": [
        {
          "internalType": "address",
          "name": "newImplementation",
          "type": "address"
        },
        {
          "internalType": "bytes",
          "name": "data",
          "type": "bytes"
        }
      ],
      "name": "upgradeToAndCall",
      "outputs": [],
      "stateMutability": "payable",
      "type": "function"
    },
    {
      "inputs": [],
      "name": "version",
      "outputs": [
        {
          "internalType": "string",
          "name": "",
          "type": "string"
        }
      ],
      "stateMutability": "pure",
      "type": "function"
    }
  ],
  "bytecode": "0x60a06040523073ffffffffffffffffffffffffffffffffffffffff1660809073ffffffffffffffffffffffffffffffffffffffff16815250348015604257600080fd5b50608051611eed61006c60003960008181610ee501528181610f3a01526110f50152611eed6000f3fe60806040526004361061014b5760003560e01c806355241077116100b6578063a217fddf1161006f578063a217fddf1461043b578063ad3cb1cc14610466578063d547741f14610491578063d8826514146104ba578063f080d5dc146104e3578063f2fde38b1461050c5761014b565b80635524107714610351578063715018a61461037a5780638129fc1c146103915780638da5cb5b146103a857806391d14854146103d35780639dd161e6146104105761014b565b806336568abe1161010857806336568abe146102745780633bfd7fd31461029d57806345c3ad32146102b45780634f1ef286146102df57806352d1902d146102fb57806354fd4d50146103265761014b565b806301ffc9a714610150578063209652551461018d578063248a9ca3146101b85780632f2ff15d146101f557806332031caa1461021e57806333e1706814610249575b600080fd5b34801561015c57600080fd5b50610177600480360381019061017291906117b9565b610535565b6040516101849190611801565b60405180910390f35b34801561019957600080fd5b506101a26105af565b6040516101af9190611835565b60405180910390f35b3480156101c457600080fd5b506101df60048036038101906101da9190611886565b6105b8565b6040516101ec91906118c2565b60405180910390f35b34801561020157600080fd5b5061021c6004803603810190610217919061193b565b6105e6565b005b34801561022a57600080fd5b50610233610608565b60405161024091906118c2565b60405180910390f35b34801561025557600080fd5b5061025e61062c565b60405161026b91906118c2565b60405180910390f35b34801561028057600080fd5b5061029b6004803603810190610296919061193b565b610650565b005b3480156102a957600080fd5b506102b26106cb565b005b3480156102c057600080fd5b506102c96106f1565b6040516102d691906118c2565b60405180910390f35b6102f960048036038101906102f49190611ac1565b610715565b005b34801561030757600080fd5b50610310610734565b60405161031d91906118c2565b60405180910390f35b34801561033257600080fd5b5061033b610767565b6040516103489190611b9c565b60405180910390f35b34801561035d57600080fd5b5061037860048036038101906103739190611bea565b6107a4565b005b34801561038657600080fd5b5061038f6107b6565b005b34801561039d57600080fd5b506103a66107ca565b005b3480156103b457600080fd5b506103bd61097e565b6040516103ca9190611c26565b60405180910390f35b3480156103df57600080fd5b506103fa60048036038101906103f5919061193b565b6109b6565b6040516104079190611801565b60405180910390f35b34801561041c57600080fd5b50610425610a2f565b60405161043291906118c2565b60405180910390f35b34801561044757600080fd5b50610450610a53565b60405161045d91906118c2565b60405180910390f35b34801561047257600080fd5b5061047b610a5a565b6040516104889190611b9c565b60405180910390f35b34801561049d57600080fd5b506104b860048036038101906104b3919061193b565b610a93565b005b3480156104c657600080fd5b506104e160048036038101906104dc9190611c41565b610ab5565b005b3480156104ef57600080fd5b5061050a60048036038101906105059190611c81565b610ad1565b005b34801561051857600080fd5b50610533600480360381019061052e9190611cc1565b610b25565b005b60007f7965db0b000000000000000000000000000000000000000000000000000000007bffffffffffffffffffffffffffffffffffffffffffffffffffffffff1916827bffffffffffffffffffffffffffffffffffffffffffffffffffffffff191614806105a857506105a782610bab565b5b9050919050565b60008054905090565b6000806105c3610c15565b905080600001600084815260200190815260200160002060010154915050919050565b6105ef826105b8565b6105f881610c3d565b6106028383610c51565b50505050565b7f9b707cd1e6b1b195eadf2d4424d4d6e87acfd23b07c821889e37004532017db481565b7f4e94a7c81bd91b9fc4a2ac6f0ec19a6dd073138ef668d9cf1908c54389d5ae6f81565b610658610d52565b73ffffffffffffffffffffffffffffffffffffffff168173ffffffffffffffffffffffffffffffffffffffff16146106bc576040517f6697b23200000000000000000000000000000000000000000000000000000000815260040160405180910390fd5b6106c68282610d5a565b505050565b6106d3610e5c565b6106ef60016106e06105af565b6106ea9190611d1d565b6107a4565b565b7f9acc82eb0f989815bf5d34897070c1358afa31c7682f8082652708374a8121dc81565b61071d610ee3565b61072682610fc9565b6107308282610fd4565b5050565b600061073e6110f3565b7f360894a13ba1a3210667c828492db98dca3e2076cc3735a920a3ca505d382bbc60001b905090565b60606040518060400160405280600281526020017f5632000000000000000000000000000000000000000000000000000000000000815250905090565b6107ac610e5c565b8060008190555050565b6107be610e5c565b6107c8600061117a565b565b60006107d4611251565b905060008160000160089054906101000a900460ff1615905060008260000160009054906101000a900467ffffffffffffffff1690506000808267ffffffffffffffff161480156108225750825b9050600060018367ffffffffffffffff16148015610857575060003073ffffffffffffffffffffffffffffffffffffffff163b145b905081158015610865575080155b1561089c576040517ff92ee8a900000000000000000000000000000000000000000000000000000000815260040160405180910390fd5b60018560000160006101000a81548167ffffffffffffffff021916908367ffffffffffffffff16021790555083156108ec5760018560000160086101000a81548160ff0219169083151502179055505b6108f533611265565b6108fd611279565b610905611283565b600160008190555061091a6000801b33610c51565b5083156109775760008560000160086101000a81548160ff0219169083151502179055507fc7f505b2f371ae2175ee4913f4499e1f2633a7b5936321eed1cdaeb6115181d2600160405161096e9190611daa565b60405180910390a15b5050505050565b60008061098961128d565b90508060000160009054906101000a900473ffffffffffffffffffffffffffffffffffffffff1691505090565b6000806109c1610c15565b905080600001600085815260200190815260200160002060000160008473ffffffffffffffffffffffffffffffffffffffff1673ffffffffffffffffffffffffffffffffffffffff16815260200190815260200160002060009054906101000a900460ff1691505092915050565b7f78163ed90355629b19b39027a4f084c5b980c7566e42930c4bbc98a8acafb9da81565b6000801b81565b6040518060400160405280600581526020017f352e302e3000000000000000000000000000000000000000000000000000000081525081565b610a9c826105b8565b610aa581610c3d565b610aaf8383610d5a565b50505050565b6000801b610ac281610c3d565b610acc82846105e6565b505050565b3373ffffffffffffffffffffffffffffffffffffffff167f41cb13aaeb4e93188c46ae19705b27a649d4e3f673f22ade808b8463e20454998383604051610b19929190611dc5565b60405180910390a25050565b610b2d610e5c565b600073ffffffffffffffffffffffffffffffffffffffff168173ffffffffffffffffffffffffffffffffffffffff1603610b9f5760006040517f1e4fbdf7000000000000000000000000000000000000000000000000000000008152600401610b969190611c26565b60405180910390fd5b610ba88161117a565b50565b60007f01ffc9a7000000000000000000000000000000000000000000000000000000007bffffffffffffffffffffffffffffffffffffffffffffffffffffffff1916827bffffffffffffffffffffffffffffffffffffffffffffffffffffffff1916149050919050565b60007f02dd7bc7dec4dceedda775e58dd541e08a116c6c53815c0bd028192f7b626800905090565b610c4e81610c49610d52565b6112b5565b50565b600080610c5c610c15565b9050610c6884846109b6565b610d4657600181600001600086815260200190815260200160002060000160008573ffffffffffffffffffffffffffffffffffffffff1673ffffffffffffffffffffffffffffffffffffffff16815260200190815260200160002060006101000a81548160ff021916908315150217905550610ce2610d52565b73ffffffffffffffffffffffffffffffffffffffff168373ffffffffffffffffffffffffffffffffffffffff16857f2f8788117e7eff1d82e926ec794901d17c78024a50270940304540a733656f0d60405160405180910390a46001915050610d4c565b60009150505b92915050565b600033905090565b600080610d65610c15565b9050610d7184846109b6565b15610e5057600081600001600086815260200190815260200160002060000160008573ffffffffffffffffffffffffffffffffffffffff1673ffffffffffffffffffffffffffffffffffffffff16815260200190815260200160002060006101000a81548160ff021916908315150217905550610dec610d52565b73ffffffffffffffffffffffffffffffffffffffff168373ffffffffffffffffffffffffffffffffffffffff16857ff6391f5c32d9c69d2a47ea670b442974b53935d1edc7fd64eb21e047a839171b60405160405180910390a46001915050610e56565b60009150505b92915050565b610e64610d52565b73ffffffffffffffffffffffffffffffffffffffff16610e8261097e565b73ffffffffffffffffffffffffffffffffffffffff1614610ee157610ea5610d52565b6040517f118cdaa7000000000000000000000000000000000000000000000000000000008152600401610ed89190611c26565b60405180910390fd5b565b7f000000000000000000000000000000000000000000000000000000000000000073ffffffffffffffffffffffffffffffffffffffff163073ffffffffffffffffffffffffffffffffffffffff161480610f9057507f000000000000000000000000000000000000000000000000000000000000000073ffffffffffffffffffffffffffffffffffffffff16610f77611306565b73ffffffffffffffffffffffffffffffffffffffff1614155b15610fc7576040517fe07c8dba00000000000000000000000000000000000000000000000000000000815260040160405180910390fd5b565b610fd1610e5c565b50565b8173ffffffffffffffffffffffffffffffffffffffff166352d1902d6040518163ffffffff1660e01b8152600401602060405180830381865afa92505050801561103c57506040513d601f19601f820116820180604052508101906110399190611e03565b60015b61107d57816040517f4c9c8ce30000000000000000000000000000000000000000000000000000000081526004016110749190611c26565b60405180910390fd5b7f360894a13ba1a3210667c828492db98dca3e2076cc3735a920a3ca505d382bbc60001b81146110e457806040517faa1d49a40000000000000000000000000000000000000000000000000000000081526004016110db91906118c2565b60405180910390fd5b6110ee838361135d565b505050565b7f000000000000000000000000000000000000000000000000000000000000000073ffffffffffffffffffffffffffffffffffffffff163073ffffffffffffffffffffffffffffffffffffffff1614611178576040517fe07c8dba00000000000000000000000000000000000000000000000000000000815260040160405180910390fd5b565b600061118461128d565b905060008160000160009054906101000a900473ffffffffffffffffffffffffffffffffffffffff169050828260000160006101000a81548173ffffffffffffffffffffffffffffffffffffffff021916908373ffffffffffffffffffffffffffffffffffffffff1602179055508273ffffffffffffffffffffffffffffffffffffffff168173ffffffffffffffffffffffffffffffffffffffff167f8be0079c531659141344cd1fd0a4f28419497f9722a3daafe3b4186f6b6457e060405160405180910390a3505050565b60008061125c6113d0565b90508091505090565b61126d6113fb565b6112768161143b565b50565b6112816113fb565b565b61128b6113fb565b565b60007f9016d09d72d40fdae2fd8ceac6b6234c7706214fd39c1cd1e609a0528c199300905090565b6112bf82826109b6565b6113025780826040517fe2517d3f0000000000000000000000000000000000000000000000000000000081526004016112f9929190611e30565b60405180910390fd5b5050565b60006113347f360894a13ba1a3210667c828492db98dca3e2076cc3735a920a3ca505d382bbc60001b6114c1565b60000160009054906101000a900473ffffffffffffffffffffffffffffffffffffffff16905090565b611366826114cb565b8173ffffffffffffffffffffffffffffffffffffffff167fbc7cd75a20ee27fd9adebab32041f755214dbc6bffa90cc0225b39da2e5c2d3b60405160405180910390a26000815111156113c3576113bd8282611598565b506113cc565b6113cb61161c565b5b5050565b60007ff0c57e16840df040f15088dc2f81fe391c3923bec73e23a9662efc9c229c6a0060001b905090565b611403611659565b611439576040517fd7e6bcf800000000000000000000000000000000000000000000000000000000815260040160405180910390fd5b565b6114436113fb565b600073ffffffffffffffffffffffffffffffffffffffff168173ffffffffffffffffffffffffffffffffffffffff16036114b55760006040517f1e4fbdf70000000000000000000000000000000000000000000000000000000081526004016114ac9190611c26565b60405180910390fd5b6114be8161117a565b50565b6000819050919050565b60008173ffffffffffffffffffffffffffffffffffffffff163b0361152757806040517f4c9c8ce300000000000000000000000000000000000000000000000000000000815260040161151e9190611c26565b60405180910390fd5b806115547f360894a13ba1a3210667c828492db98dca3e2076cc3735a920a3ca505d382bbc60001b6114c1565b60000160006101000a81548173ffffffffffffffffffffffffffffffffffffffff021916908373ffffffffffffffffffffffffffffffffffffffff16021790555050565b60606000808473ffffffffffffffffffffffffffffffffffffffff16846040516115c29190611ea0565b600060405180830381855af49150503d80600081146115fd576040519150601f19603f3d011682016040523d82523d6000602084013e611602565b606091505b5091509150611612858383611679565b9250505092915050565b6000341115611657576040517fb398979f00000000000000000000000000000000000000000000000000000000815260040160405180910390fd5b565b6000611663611251565b60000160089054906101000a900460ff16905090565b60608261168e5761168982611708565b611700565b600082511480156116b6575060008473ffffffffffffffffffffffffffffffffffffffff163b145b156116f857836040517f9996b3150000000000000000000000000000000000000000000000000000000081526004016116ef9190611c26565b60405180910390fd5b819050611701565b5b9392505050565b60008151111561171b5780518082602001fd5b6040517fd6bda27500000000000000000000000000000000000000000000000000000000815260040160405180910390fd5b6000604051905090565b600080fd5b600080fd5b60007fffffffff0000000000000000000000000000000000000000000000000000000082169050919050565b61179681611761565b81146117a157600080fd5b50565b6000813590506117b38161178d565b92915050565b6000602082840312156117cf576117ce611757565b5b60006117dd848285016117a4565b91505092915050565b60008115159050919050565b6117fb816117e6565b82525050565b600060208201905061181660008301846117f2565b92915050565b6000819050919050565b61182f8161181c565b82525050565b600060208201905061184a6000830184611826565b92915050565b6000819050919050565b61186381611850565b811461186e57600080fd5b50565b6000813590506118808161185a565b92915050565b60006020828403121561189c5761189b611757565b5b60006118aa84828501611871565b91505092915050565b6118bc81611850565b82525050565b60006020820190506118d760008301846118b3565b92915050565b600073ffffffffffffffffffffffffffffffffffffffff82169050919050565b6000611908826118dd565b9050919050565b611918816118fd565b811461192357600080fd5b50565b6000813590506119358161190f565b92915050565b6000806040838503121561195257611951611757565b5b600061196085828601611871565b925050602061197185828601611926565b9150509250929050565b600080fd5b600080fd5b6000601f19601f8301169050919050565b7f4e487b7100000000000000000000000000000000000000000000000000000000600052604160045260246000fd5b6119ce82611985565b810181811067ffffffffffffffff821117156119ed576119ec611996565b5b80604052505050565b6000611a0061174d565b9050611a0c82826119c5565b919050565b600067ffffffffffffffff821115611a2c57611a2b611996565b5b611a3582611985565b9050602081019050919050565b82818337600083830152505050565b6000611a64611a5f84611a11565b6119f6565b905082815260208101848484011115611a8057611a7f611980565b5b611a8b848285611a42565b509392505050565b600082601f830112611aa857611aa761197b565b5b8135611ab8848260208601611a51565b91505092915050565b60008060408385031215611ad857611ad7611757565b5b6000611ae685828601611926565b925050602083013567ffffffffffffffff811115611b0757611b0661175c565b5b611b1385828601611a93565b9150509250929050565b600081519050919050565b600082825260208201905092915050565b60005b83811015611b57578082015181840152602081019050611b3c565b60008484015250505050565b6000611b6e82611b1d565b611b788185611b28565b9350611b88818560208601611b39565b611b9181611985565b840191505092915050565b60006020820190508181036000830152611bb68184611b63565b905092915050565b611bc78161181c565b8114611bd257600080fd5b50565b600081359050611be481611bbe565b92915050565b600060208284031215611c0057611bff611757565b5b6000611c0e84828501611bd5565b91505092915050565b611c20816118fd565b82525050565b6000602082019050611c3b6000830184611c17565b92915050565b60008060408385031215611c5857611c57611757565b5b6000611c6685828601611926565b9250506020611c7785828601611871565b9150509250929050565b60008060408385031215611c9857611c97611757565b5b6000611ca685828601611871565b9250506020611cb785828601611871565b9150509250929050565b600060208284031215611cd757611cd6611757565b5b6000611ce584828501611926565b91505092915050565b7f4e487b7100000000000000000000000000000000000000000000000000000000600052601160045260246000fd5b6000611d288261181c565b9150611d338361181c565b9250828201905080821115611d4b57611d4a611cee565b5b92915050565b6000819050919050565b600067ffffffffffffffff82169050919050565b6000819050919050565b6000611d94611d8f611d8a84611d51565b611d6f565b611d5b565b9050919050565b611da481611d79565b82525050565b6000602082019050611dbf6000830184611d9b565b92915050565b6000604082019050611dda60008301856118b3565b611de760208301846118b3565b9392505050565b600081519050611dfd8161185a565b92915050565b600060208284031215611e1957611e18611757565b5b6000611e2784828501611dee565b91505092915050565b6000604082019050611e456000830185611c17565b611e5260208301846118b3565b9392505050565b600081519050919050565b600081905092915050565b6000611e7a82611e59565b611e848185611e64565b9350611e94818560208601611b39565b80840191505092915050565b6000611eac8284611e6f565b91508190509291505056fea26469706673582212202f43259fc00c6e654afa01d71659c11087db877aa0dc0841e952cf6c60a3119664736f6c634300081c0033",
  "linkReferences": {},
  "deployedLinkReferences": {}
}