{
  "_format": "hh-sol-artifact-1",
  "contractName": "ImplementationV1",
  "sourceName": "contracts/ImplementationV1.sol",
  "abi": [
    {
      "inputs": [],
      "name": "AccessControlBadConfirmation",
      "type": "error"
    },
    {
      "inputs": [
        {
          "internalType": "address",
          "name": "account",
          "type": "address"
        },
        {
          "internalType": "bytes32",
          "name": "neededRole",
          "type": "bytes32"
        }
      ],
      "name": "AccessControlUnauthorizedAccount",
      "type": "error"
    },
    {
      "inputs": [
        {
          "internalType": "address",
          "name": "target",
          "type": "address"
        }
      ],
      "name": "AddressEmptyCode",
      "type": "error"
    },
    {
      "inputs": [
        {
          "internalType": "address",
          "name": "implementation",
          "type": "address"
        }
      ],
      "name": "ERC1967InvalidImplementation",
      "type": "error"
    },
    {
      "inputs": [],
      "name": "ERC1967NonPayable",
      "type": "error"
    },
    {
      "inputs": [],
      "name": "FailedCall",
      "type": "error"
    },
    {
      "inputs": [],
      "name": "InvalidInitialization",
      "type": "error"
    },
    {
      "inputs": [],
      "name": "NotInitializing",
      "type": "error"
    },
    {
      "inputs": [
        {
          "internalType": "address",
          "name": "owner",
          "type": "address"
        }
      ],
      "name": "OwnableInvalidOwner",
      "type": "error"
    },
    {
      "inputs": [
        {
          "internalType": "address",
          "name": "account",
          "type": "address"
        }
      ],
      "name": "OwnableUnauthorizedAccount",
      "type": "error"
    },
    {
      "inputs": [],
      "name": "UUPSUnauthorizedCallContext",
      "type": "error"
    },
    {
      "inputs": [
        {
          "internalType": "bytes32",
          "name": "slot",
          "type": "bytes32"
        }
      ],
      "name": "UUPSUnsupportedProxiableUUID",
      "type": "error"
    },
    {
      "anonymous": false,
      "inputs": [
        {
          "indexed": false,
          "internalType": "uint64",
          "name": "version",
          "type": "uint64"
        }
      ],
      "name": "Initialized",
      "type": "event"
    },
    {
      "anonymous": false,
      "inputs": [
        {
          "indexed": true,
          "internalType": "address",
          "name": "previousOwner",
          "type": "address"
        },
        {
          "indexed": true,
          "internalType": "address",
          "name": "newOwner",
          "type": "address"
        }
      ],
      "name": "OwnershipTransferred",
      "type": "event"
    },
    {
      "anonymous": false,
      "inputs": [
        {
          "indexed": true,
          "internalType": "bytes32",
          "name": "role",
          "type": "bytes32"
        },
        {
          "indexed": true,
          "internalType": "bytes32",
          "name": "previousAdminRole",
          "type": "bytes32"
        },
        {
          "indexed": true,
          "internalType": "bytes32",
          "name": "newAdminRole",
          "type": "bytes32"
        }
      ],
      "name": "RoleAdminChanged",
      "type": "event"
    },
    {
      "anonymous": false,
      "inputs": [
        {
          "indexed": true,
          "internalType": "address",
          "name": "demandeur",
          "type": "address"
        },
        {
          "indexed": false,
          "internalType": "bytes32",
          "name": "role",
          "type": "bytes32"
        },
        {
          "indexed": false,
          "internalType": "bytes32",
          "name": "siret",
          "type": "bytes32"
        }
      ],
      "name": "RoleDemande",
      "type": "event"
    },
    {
      "anonymous": false,
      "inputs": [
        {
          "indexed": true,
          "internalType": "bytes32",
          "name": "role",
          "type": "bytes32"
        },
        {
          "indexed": true,
          "internalType": "address",
          "name": "account",
          "type": "address"
        },
        {
          "indexed": true,
          "internalType": "address",
          "name": "sender",
          "type": "address"
        }
      ],
      "name": "RoleGranted",
      "type": "event"
    },
    {
      "anonymous": false,
      "inputs": [
        {
          "indexed": true,
          "internalType": "bytes32",
          "name": "role",
          "type": "bytes32"
        },
        {
          "indexed": true,
          "internalType": "address",
          "name": "account",
          "type": "address"
        },
        {
          "indexed": true,
          "internalType": "address",
          "name": "sender",
          "type": "address"
        }
      ],
      "name": "RoleRevoked",
      "type": "event"
    },
    {
      "anonymous": false,
      "inputs": [
        {
          "indexed": true,
          "internalType": "address",
          "name": "implementation",
          "type": "address"
        }
      ],
      "name": "Upgraded",
      "type": "event"
    },
    {
      "inputs": [],
      "name": "DEFAULT_ADMIN_ROLE",
      "outputs": [
        {
          "internalType": "bytes32",
          "name": "",
          "type": "bytes32"
        }
      ],
      "stateMutability": "view",
      "type": "function"
    },
    {
      "inputs": [],
      "name": "DISTRIBUTEUR_ROLE",
      "outputs": [
        {
          "internalType": "bytes32",
          "name": "",
          "type": "bytes32"
        }
      ],
      "stateMutability": "view",
      "type": "function"
    },
    {
      "inputs": [],
      "name": "PRODUCTEUR_ROLE",
      "outputs": [
        {
          "internalType": "bytes32",
          "name": "",
          "type": "bytes32"
        }
      ],
      "stateMutability": "view",
      "type": "function"
    },
    {
      "inputs": [],
      "name": "TRANSFORMATEUR_ROLE",
      "outputs": [
        {
          "internalType": "bytes32",
          "name": "",
          "type": "bytes32"
        }
      ],
      "stateMutability": "view",
      "type": "function"
    },
    {
      "inputs": [],
      "name": "TRANSPORTEUR_ROLE",
      "outputs": [
        {
          "internalType": "bytes32",
          "name": "",
          "type": "bytes32"
        }
      ],
      "stateMutability": "view",
      "type": "function"
    },
    {
      "inputs": [],
      "name": "UPGRADE_INTERFACE_VERSION",
      "outputs": [
        {
          "internalType": "string",
          "name": "",
          "type": "string"
        }
      ],
      "stateMutability": "view",
      "type": "function"
    },
    {
      "inputs": [
        {
          "internalType": "address",
          "name": "user",
          "type": "address"
        },
        {
          "internalType": "bytes32",
          "name": "role",
          "type": "bytes32"
        }
      ],
      "name": "accorderRole",
      "outputs": [],
      "stateMutability": "nonpayable",
      "type": "function"
    },
    {
      "inputs": [
        {
          "internalType": "bytes32",
          "name": "role",
          "type": "bytes32"
        },
        {
          "internalType": "bytes32",
          "name": "siret",
          "type": "bytes32"
        }
      ],
      "name": "demanderRole",
      "outputs": [],
      "stateMutability": "nonpayable",
      "type": "function"
    },
    {
      "inputs": [
        {
          "internalType": "bytes32",
          "name": "role",
          "type": "bytes32"
        }
      ],
      "name": "getRoleAdmin",
      "outputs": [
        {
          "internalType": "bytes32",
          "name": "",
          "type": "bytes32"
        }
      ],
      "stateMutability": "view",
      "type": "function"
    },
    {
      "inputs": [],
      "name": "getValue",
      "outputs": [
        {
          "internalType": "uint256",
          "name": "",
          "type": "uint256"
        }
      ],
      "stateMutability": "view",
      "type": "function"
    },
    {
      "inputs": [
        {
          "internalType": "bytes32",
          "name": "role",
          "type": "bytes32"
        },
        {
          "internalType": "address",
          "name": "account",
          "type": "address"
        }
      ],
      "name": "grantRole",
      "outputs": [],
      "stateMutability": "nonpayable",
      "type": "function"
    },
    {
      "inputs": [
        {
          "internalType": "bytes32",
          "name": "role",
          "type": "bytes32"
        },
        {
          "internalType": "address",
          "name": "account",
          "type": "address"
        }
      ],
      "name": "hasRole",
      "outputs": [
        {
          "internalType": "bool",
          "name": "",
          "type": "bool"
        }
      ],
      "stateMutability": "view",
      "type": "function"
    },
    {
      "inputs": [],
      "name": "initialize",
      "outputs": [],
      "stateMutability": "nonpayable",
      "type": "function"
    },
    {
      "inputs": [],
      "name": "owner",
      "outputs": [
        {
          "internalType": "address",
          "name": "",
          "type": "address"
        }
      ],
      "stateMutability": "view",
      "type": "function"
    },
    {
      "inputs": [],
      "name": "proxiableUUID",
      "outputs": [
        {
          "internalType": "bytes32",
          "name": "",
          "type": "bytes32"
        }
      ],
      "stateMutability": "view",
      "type": "function"
    },
    {
      "inputs": [],
      "name": "renounceOwnership",
      "outputs": [],
      "stateMutability": "nonpayable",
      "type": "function"
    },
    {
      "inputs": [
        {
          "internalType": "bytes32",
          "name": "role",
          "type": "bytes32"
        },
        {
          "internalType": "address",
          "name": "callerConfirmation",
          "type": "address"
        }
      ],
      "name": "renounceRole",
      "outputs": [],
      "stateMutability": "nonpayable",
      "type": "function"
    },
    {
      "inputs": [
        {
          "internalType": "bytes32",
          "name": "role",
          "type": "bytes32"
        },
        {
          "internalType": "address",
          "name": "account",
          "type": "address"
        }
      ],
      "name": "revokeRole",
      "outputs": [],
      "stateMutability": "nonpayable",
      "type": "function"
    },
    {
      "inputs": [
        {
          "internalType": "uint256",
          "name": "_value",
          "type": "uint256"
        }
      ],
      "name": "setValue",
      "outputs": [],
      "stateMutability": "nonpayable",
      "type": "function"
    },
    {
      "inputs": [
        {
          "internalType": "bytes4",
          "name": "interfaceId",
          "type": "bytes4"
        }
      ],
      "name": "supportsInterface",
      "outputs": [
        {
          "internalType": "bool",
          "name": "",
          "type": "bool"
        }
      ],
      "stateMutability": "view",
      "type": "function"
    },
    {
      "inputs": [
        {
          "internalType": "address",
          "name": "newOwner",
          "type": "address"
        }
      ],
      "name": "transferOwnership",
      "outputs": [],
      "stateMutability": "nonpayable",
      "type": "function"
    },
    {
      "inputs": [
        {
          "internalType": "address",
          "name": "newImplementation",
          "type": "address"
        },
        {
          "internalType": "bytes",
          "name": "data",
          "type": "bytes"
        }
      ],
      "name": "upgradeToAndCall",
      "outputs": [],
      "stateMutability": "payable",
      "type": "function"
    }
  ],
  "bytecode": "0x60a0806040523460295730608052610ed9908161002f82396080518181816105b001526106840152f35b600080fdfe608080604052600436101561001357600080fd5b60003560e01c90816301ffc9a7146109af575080632096525514610991578063248a9ca31461096b5780632f2ff15d1461093f57806332031caa1461090457806333e17068146108c957806336568abe1461088357806345c3ad32146108485780634f1ef2861461060757806352d1902d1461059d578063552410771461057c578063715018a6146105125780638129fc1c146103a75780638da5cb5b1461037157806391d14854146103175780639dd161e6146102dc578063a217fddf146102c0578063ad3cb1cc14610244578063d547741f14610213578063d88265141461018a578063f080d5dc146101415763f2fde38b1461011157600080fd5b3461013c57602036600319011261013c5761013a61012d610a18565b610135610d5e565b610aa3565b005b600080fd5b3461013c57604036600319011261013c57604051600435815260243560208201527f41cb13aaeb4e93188c46ae19705b27a649d4e3f673f22ade808b8463e204549960403392a2005b3461013c57604036600319011261013c576101a3610a18565b3360009081527fb7db2dd08fcb62d0c9e08c51941cae53c267786a0b75803fb7960902fc8ef97d6020526040902054602435919060ff16156101f957816101f46101ef61013a94610a82565b610b19565b610c15565b63e2517d3f60e01b60005233600452600060245260446000fd5b3461013c57604036600319011261013c5761013a600435610232610a02565b9061023f6101ef82610a82565b610cbe565b3461013c57600036600319011261013c5760408051906102648183610a2e565b60058252640352e302e360dc1b6020830152805180926020825280519081602084015260005b8281106102a95750506000828201840152601f01601f19168101030190f35b60208282018101518783018701528694500161028a565b3461013c57600036600319011261013c57602060405160008152f35b3461013c57600036600319011261013c5760206040517f78163ed90355629b19b39027a4f084c5b980c7566e42930c4bbc98a8acafb9da8152f35b3461013c57604036600319011261013c57610330610a02565b600435600052600080516020610e6483398151915260205260406000209060018060a01b0316600052602052602060ff604060002054166040519015158152f35b3461013c57600036600319011261013c57600080516020610e24833981519152546040516001600160a01b039091168152602090f35b3461013c57600036600319011261013c57600080516020610e848339815191525460ff8160401c16159067ffffffffffffffff81168015908161050a575b6001149081610500575b1590816104f7575b506104e65767ffffffffffffffff198116600117600080516020610e8483398151915255816104b9575b5061042a610d94565b610432610d94565b61043b33610aa3565b610443610d94565b61044b610d94565b600160005561045933610b63565b5061046057005b68ff000000000000000019600080516020610e848339815191525416600080516020610e84833981519152557fc7f505b2f371ae2175ee4913f4499e1f2633a7b5936321eed1cdaeb6115181d2602060405160018152a1005b68ffffffffffffffffff19166801000000000000000117600080516020610e848339815191525581610421565b63f92ee8a960e01b60005260046000fd5b905015836103f7565b303b1591506103ef565b8391506103e5565b3461013c57600036600319011261013c5761052b610d5e565b600080516020610e2483398151915280546001600160a01b031981169091556000906001600160a01b03167f8be0079c531659141344cd1fd0a4f28419497f9722a3daafe3b4186f6b6457e08280a3005b3461013c57602036600319011261013c57610595610d5e565b600435600055005b3461013c57600036600319011261013c577f00000000000000000000000000000000000000000000000000000000000000006001600160a01b031630036105f6576020604051600080516020610e448339815191528152f35b63703e46dd60e11b60005260046000fd5b604036600319011261013c5761061b610a18565b6024359067ffffffffffffffff821161013c573660238301121561013c5781600401359061064882610a66565b916106566040519384610a2e565b8083526020830193366024838301011161013c57816000926024602093018737840101526001600160a01b037f000000000000000000000000000000000000000000000000000000000000000016308114908115610825575b506105f6576106bc610d5e565b6040516352d1902d60e01b81526001600160a01b0382169390602081600481885afa600091816107f1575b506107015784634c9c8ce360e01b60005260045260246000fd5b80600080516020610e448339815191528692036107dd5750823b156107c957600080516020610e4483398151915280546001600160a01b031916821790557fbc7cd75a20ee27fd9adebab32041f755214dbc6bffa90cc0225b39da2e5c2d3b600080a28251156107ae576000809161013a945190845af43d156107a6573d9161078983610a66565b926107976040519485610a2e565b83523d6000602085013e610dc2565b606091610dc2565b505050346107b857005b63b398979f60e01b60005260046000fd5b634c9c8ce360e01b60005260045260246000fd5b632a87526960e21b60005260045260246000fd5b9091506020813d60201161081d575b8161080d60209383610a2e565b8101031261013c575190866106e7565b3d9150610800565b600080516020610e44833981519152546001600160a01b031614159050846106af565b3461013c57600036600319011261013c5760206040517f9acc82eb0f989815bf5d34897070c1358afa31c7682f8082652708374a8121dc8152f35b3461013c57604036600319011261013c5761089c610a02565b336001600160a01b038216036108b85761013a90600435610cbe565b63334bd91960e11b60005260046000fd5b3461013c57600036600319011261013c5760206040517f4e94a7c81bd91b9fc4a2ac6f0ec19a6dd073138ef668d9cf1908c54389d5ae6f8152f35b3461013c57600036600319011261013c5760206040517f9b707cd1e6b1b195eadf2d4424d4d6e87acfd23b07c821889e37004532017db48152f35b3461013c57604036600319011261013c5761013a60043561095e610a02565b906101f46101ef82610a82565b3461013c57602036600319011261013c576020610989600435610a82565b604051908152f35b3461013c57600036600319011261013c576020600054604051908152f35b3461013c57602036600319011261013c576004359063ffffffff60e01b821680920361013c57602091637965db0b60e01b81149081156109f1575b5015158152f35b6301ffc9a760e01b149050836109ea565b602435906001600160a01b038216820361013c57565b600435906001600160a01b038216820361013c57565b90601f8019910116810190811067ffffffffffffffff821117610a5057604052565b634e487b7160e01b600052604160045260246000fd5b67ffffffffffffffff8111610a5057601f01601f191660200190565b600052600080516020610e6483398151915260205260016040600020015490565b6001600160a01b03168015610b0357600080516020610e2483398151915280546001600160a01b0319811683179091556001600160a01b03167f8be0079c531659141344cd1fd0a4f28419497f9722a3daafe3b4186f6b6457e0600080a3565b631e4fbdf760e01b600052600060045260246000fd5b6000818152600080516020610e648339815191526020908152604080832033845290915290205460ff1615610b4b5750565b63e2517d3f60e01b6000523360045260245260446000fd5b6001600160a01b03811660009081527fb7db2dd08fcb62d0c9e08c51941cae53c267786a0b75803fb7960902fc8ef97d602052604090205460ff16610c0f576001600160a01b031660008181527fb7db2dd08fcb62d0c9e08c51941cae53c267786a0b75803fb7960902fc8ef97d60205260408120805460ff191660011790553391907f2f8788117e7eff1d82e926ec794901d17c78024a50270940304540a733656f0d8180a4600190565b50600090565b6000818152600080516020610e64833981519152602090815260408083206001600160a01b038616845290915290205460ff16610cb7576000818152600080516020610e64833981519152602090815260408083206001600160a01b0395909516808452949091528120805460ff19166001179055339291907f2f8788117e7eff1d82e926ec794901d17c78024a50270940304540a733656f0d9080a4600190565b5050600090565b6000818152600080516020610e64833981519152602090815260408083206001600160a01b038616845290915290205460ff1615610cb7576000818152600080516020610e64833981519152602090815260408083206001600160a01b0395909516808452949091528120805460ff19169055339291907ff6391f5c32d9c69d2a47ea670b442974b53935d1edc7fd64eb21e047a839171b9080a4600190565b600080516020610e24833981519152546001600160a01b03163303610d7f57565b63118cdaa760e01b6000523360045260246000fd5b60ff600080516020610e848339815191525460401c1615610db157565b631afcd79f60e31b60005260046000fd5b90610de85750805115610dd757805190602001fd5b63d6bda27560e01b60005260046000fd5b81511580610e1a575b610df9575090565b639996b31560e01b60009081526001600160a01b0391909116600452602490fd5b50803b15610df156fe9016d09d72d40fdae2fd8ceac6b6234c7706214fd39c1cd1e609a0528c199300360894a13ba1a3210667c828492db98dca3e2076cc3735a920a3ca505d382bbc02dd7bc7dec4dceedda775e58dd541e08a116c6c53815c0bd028192f7b626800f0c57e16840df040f15088dc2f81fe391c3923bec73e23a9662efc9c229c6a00a26469706673582212207bc52a48c18d89b7dce8d533c19afd3de841d5c7d799ef52978fabdcf20944a364736f6c634300081c0033",
  "linkReferences": {},
  "deployedLinkReferences": {}
}