{
  "_format": "hh-sol-artifact-1",
  "contractName": "ImplementationV1",
  "sourceName": "contracts/ImplementationV1.sol",
  "abi": [
    {
      "inputs": [],
      "name": "AccessControlBadConfirmation",
      "type": "error"
    },
    {
      "inputs": [
        {
          "internalType": "address",
          "name": "account",
          "type": "address"
        },
        {
          "internalType": "bytes32",
          "name": "neededRole",
          "type": "bytes32"
        }
      ],
      "name": "AccessControlUnauthorizedAccount",
      "type": "error"
    },
    {
      "inputs": [
        {
          "internalType": "address",
          "name": "target",
          "type": "address"
        }
      ],
      "name": "AddressEmptyCode",
      "type": "error"
    },
    {
      "inputs": [
        {
          "internalType": "address",
          "name": "implementation",
          "type": "address"
        }
      ],
      "name": "ERC1967InvalidImplementation",
      "type": "error"
    },
    {
      "inputs": [],
      "name": "ERC1967NonPayable",
      "type": "error"
    },
    {
      "inputs": [],
      "name": "FailedCall",
      "type": "error"
    },
    {
      "inputs": [],
      "name": "InvalidInitialization",
      "type": "error"
    },
    {
      "inputs": [],
      "name": "NotInitializing",
      "type": "error"
    },
    {
      "inputs": [
        {
          "internalType": "address",
          "name": "owner",
          "type": "address"
        }
      ],
      "name": "OwnableInvalidOwner",
      "type": "error"
    },
    {
      "inputs": [
        {
          "internalType": "address",
          "name": "account",
          "type": "address"
        }
      ],
      "name": "OwnableUnauthorizedAccount",
      "type": "error"
    },
    {
      "inputs": [],
      "name": "UUPSUnauthorizedCallContext",
      "type": "error"
    },
    {
      "inputs": [
        {
          "internalType": "bytes32",
          "name": "slot",
          "type": "bytes32"
        }
      ],
      "name": "UUPSUnsupportedProxiableUUID",
      "type": "error"
    },
    {
      "anonymous": false,
      "inputs": [
        {
          "indexed": false,
          "internalType": "uint64",
          "name": "version",
          "type": "uint64"
        }
      ],
      "name": "Initialized",
      "type": "event"
    },
    {
      "anonymous": false,
      "inputs": [
        {
          "indexed": true,
          "internalType": "address",
          "name": "previousOwner",
          "type": "address"
        },
        {
          "indexed": true,
          "internalType": "address",
          "name": "newOwner",
          "type": "address"
        }
      ],
      "name": "OwnershipTransferred",
      "type": "event"
    },
    {
      "anonymous": false,
      "inputs": [
        {
          "indexed": true,
          "internalType": "bytes32",
          "name": "role",
          "type": "bytes32"
        },
        {
          "indexed": true,
          "internalType": "bytes32",
          "name": "previousAdminRole",
          "type": "bytes32"
        },
        {
          "indexed": true,
          "internalType": "bytes32",
          "name": "newAdminRole",
          "type": "bytes32"
        }
      ],
      "name": "RoleAdminChanged",
      "type": "event"
    },
    {
      "anonymous": false,
      "inputs": [
        {
          "indexed": true,
          "internalType": "address",
          "name": "demandeur",
          "type": "address"
        },
        {
          "indexed": false,
          "internalType": "bytes32",
          "name": "role",
          "type": "bytes32"
        },
        {
          "indexed": false,
          "internalType": "bytes32",
          "name": "siret",
          "type": "bytes32"
        }
      ],
      "name": "RoleDemande",
      "type": "event"
    },
    {
      "anonymous": false,
      "inputs": [
        {
          "indexed": true,
          "internalType": "bytes32",
          "name": "role",
          "type": "bytes32"
        },
        {
          "indexed": true,
          "internalType": "address",
          "name": "account",
          "type": "address"
        },
        {
          "indexed": true,
          "internalType": "address",
          "name": "sender",
          "type": "address"
        }
      ],
      "name": "RoleGranted",
      "type": "event"
    },
    {
      "anonymous": false,
      "inputs": [
        {
          "indexed": true,
          "internalType": "bytes32",
          "name": "role",
          "type": "bytes32"
        },
        {
          "indexed": true,
          "internalType": "address",
          "name": "account",
          "type": "address"
        },
        {
          "indexed": true,
          "internalType": "address",
          "name": "sender",
          "type": "address"
        }
      ],
      "name": "RoleRevoked",
      "type": "event"
    },
    {
      "anonymous": false,
      "inputs": [
        {
          "indexed": true,
          "internalType": "address",
          "name": "implementation",
          "type": "address"
        }
      ],
      "name": "Upgraded",
      "type": "event"
    },
    {
      "inputs": [],
      "name": "DEFAULT_ADMIN_ROLE",
      "outputs": [
        {
          "internalType": "bytes32",
          "name": "",
          "type": "bytes32"
        }
      ],
      "stateMutability": "view",
      "type": "function"
    },
    {
      "inputs": [],
      "name": "DISTRIBUTEUR_ROLE",
      "outputs": [
        {
          "internalType": "bytes32",
          "name": "",
          "type": "bytes32"
        }
      ],
      "stateMutability": "view",
      "type": "function"
    },
    {
      "inputs": [],
      "name": "PRODUCTEUR_ROLE",
      "outputs": [
        {
          "internalType": "bytes32",
          "name": "",
          "type": "bytes32"
        }
      ],
      "stateMutability": "view",
      "type": "function"
    },
    {
      "inputs": [],
      "name": "TRANSFORMATEUR_ROLE",
      "outputs": [
        {
          "internalType": "bytes32",
          "name": "",
          "type": "bytes32"
        }
      ],
      "stateMutability": "view",
      "type": "function"
    },
    {
      "inputs": [],
      "name": "TRANSPORTEUR_ROLE",
      "outputs": [
        {
          "internalType": "bytes32",
          "name": "",
          "type": "bytes32"
        }
      ],
      "stateMutability": "view",
      "type": "function"
    },
    {
      "inputs": [],
      "name": "UPGRADE_INTERFACE_VERSION",
      "outputs": [
        {
          "internalType": "string",
          "name": "",
          "type": "string"
        }
      ],
      "stateMutability": "view",
      "type": "function"
    },
    {
      "inputs": [
        {
          "internalType": "address",
          "name": "user",
          "type": "address"
        },
        {
          "internalType": "bytes32",
          "name": "role",
          "type": "bytes32"
        }
      ],
      "name": "accorderRole",
      "outputs": [],
      "stateMutability": "nonpayable",
      "type": "function"
    },
    {
      "inputs": [
        {
          "internalType": "bytes32",
          "name": "role",
          "type": "bytes32"
        },
        {
          "internalType": "bytes32",
          "name": "siret",
          "type": "bytes32"
        }
      ],
      "name": "demanderRole",
      "outputs": [],
      "stateMutability": "nonpayable",
      "type": "function"
    },
    {
      "inputs": [
        {
          "internalType": "bytes32",
          "name": "role",
          "type": "bytes32"
        }
      ],
      "name": "getRoleAdmin",
      "outputs": [
        {
          "internalType": "bytes32",
          "name": "",
          "type": "bytes32"
        }
      ],
      "stateMutability": "view",
      "type": "function"
    },
    {
      "inputs": [],
      "name": "getValue",
      "outputs": [
        {
          "internalType": "uint256",
          "name": "",
          "type": "uint256"
        }
      ],
      "stateMutability": "view",
      "type": "function"
    },
    {
      "inputs": [
        {
          "internalType": "bytes32",
          "name": "role",
          "type": "bytes32"
        },
        {
          "internalType": "address",
          "name": "account",
          "type": "address"
        }
      ],
      "name": "grantRole",
      "outputs": [],
      "stateMutability": "nonpayable",
      "type": "function"
    },
    {
      "inputs": [
        {
          "internalType": "bytes32",
          "name": "role",
          "type": "bytes32"
        },
        {
          "internalType": "address",
          "name": "account",
          "type": "address"
        }
      ],
      "name": "hasRole",
      "outputs": [
        {
          "internalType": "bool",
          "name": "",
          "type": "bool"
        }
      ],
      "stateMutability": "view",
      "type": "function"
    },
    {
      "inputs": [],
      "name": "initialize",
      "outputs": [],
      "stateMutability": "nonpayable",
      "type": "function"
    },
    {
      "inputs": [],
      "name": "owner",
      "outputs": [
        {
          "internalType": "address",
          "name": "",
          "type": "address"
        }
      ],
      "stateMutability": "view",
      "type": "function"
    },
    {
      "inputs": [],
      "name": "proxiableUUID",
      "outputs": [
        {
          "internalType": "bytes32",
          "name": "",
          "type": "bytes32"
        }
      ],
      "stateMutability": "view",
      "type": "function"
    },
    {
      "inputs": [],
      "name": "renounceOwnership",
      "outputs": [],
      "stateMutability": "nonpayable",
      "type": "function"
    },
    {
      "inputs": [
        {
          "internalType": "bytes32",
          "name": "role",
          "type": "bytes32"
        },
        {
          "internalType": "address",
          "name": "callerConfirmation",
          "type": "address"
        }
      ],
      "name": "renounceRole",
      "outputs": [],
      "stateMutability": "nonpayable",
      "type": "function"
    },
    {
      "inputs": [
        {
          "internalType": "bytes32",
          "name": "role",
          "type": "bytes32"
        },
        {
          "internalType": "address",
          "name": "account",
          "type": "address"
        }
      ],
      "name": "revokeRole",
      "outputs": [],
      "stateMutability": "nonpayable",
      "type": "function"
    },
    {
      "inputs": [
        {
          "internalType": "uint256",
          "name": "_value",
          "type": "uint256"
        }
      ],
      "name": "setValue",
      "outputs": [],
      "stateMutability": "nonpayable",
      "type": "function"
    },
    {
      "inputs": [
        {
          "internalType": "bytes4",
          "name": "interfaceId",
          "type": "bytes4"
        }
      ],
      "name": "supportsInterface",
      "outputs": [
        {
          "internalType": "bool",
          "name": "",
          "type": "bool"
        }
      ],
      "stateMutability": "view",
      "type": "function"
    },
    {
      "inputs": [
        {
          "internalType": "address",
          "name": "newOwner",
          "type": "address"
        }
      ],
      "name": "transferOwnership",
      "outputs": [],
      "stateMutability": "nonpayable",
      "type": "function"
    },
    {
      "inputs": [
        {
          "internalType": "address",
          "name": "newImplementation",
          "type": "address"
        },
        {
          "internalType": "bytes",
          "name": "data",
          "type": "bytes"
        }
      ],
      "name": "upgradeToAndCall",
      "outputs": [],
      "stateMutability": "payable",
      "type": "function"
    }
  ],
  "bytecode": "0x60a06040523073ffffffffffffffffffffffffffffffffffffffff1660809073ffffffffffffffffffffffffffffffffffffffff16815250348015604257600080fd5b50608051611dcf61006c60003960008181610da301528181610df80152610fb30152611dcf6000f3fe6080604052600436106101355760003560e01c8063715018a6116100ab578063a217fddf1161006f578063a217fddf146103e3578063ad3cb1cc1461040e578063d547741f14610439578063d882651414610462578063f080d5dc1461048b578063f2fde38b146104b457610135565b8063715018a6146103225780638129fc1c146103395780638da5cb5b1461035057806391d148541461037b5780639dd161e6146103b857610135565b806333e17068116100fd57806333e170681461023357806336568abe1461025e57806345c3ad32146102875780634f1ef286146102b257806352d1902d146102ce57806355241077146102f957610135565b806301ffc9a71461013a5780632096525514610177578063248a9ca3146101a25780632f2ff15d146101df57806332031caa14610208575b600080fd5b34801561014657600080fd5b50610161600480360381019061015c91906116fe565b6104dd565b60405161016e9190611746565b60405180910390f35b34801561018357600080fd5b5061018c610557565b604051610199919061177a565b60405180910390f35b3480156101ae57600080fd5b506101c960048036038101906101c491906117cb565b610560565b6040516101d69190611807565b60405180910390f35b3480156101eb57600080fd5b5061020660048036038101906102019190611880565b61058e565b005b34801561021457600080fd5b5061021d6105b0565b60405161022a9190611807565b60405180910390f35b34801561023f57600080fd5b506102486105d4565b6040516102559190611807565b60405180910390f35b34801561026a57600080fd5b5061028560048036038101906102809190611880565b6105f8565b005b34801561029357600080fd5b5061029c610673565b6040516102a99190611807565b60405180910390f35b6102cc60048036038101906102c79190611a06565b610697565b005b3480156102da57600080fd5b506102e36106b6565b6040516102f09190611807565b60405180910390f35b34801561030557600080fd5b50610320600480360381019061031b9190611a8e565b6106e9565b005b34801561032e57600080fd5b506103376106fb565b005b34801561034557600080fd5b5061034e61070f565b005b34801561035c57600080fd5b506103656108c3565b6040516103729190611aca565b60405180910390f35b34801561038757600080fd5b506103a2600480360381019061039d9190611880565b6108fb565b6040516103af9190611746565b60405180910390f35b3480156103c457600080fd5b506103cd610974565b6040516103da9190611807565b60405180910390f35b3480156103ef57600080fd5b506103f8610998565b6040516104059190611807565b60405180910390f35b34801561041a57600080fd5b5061042361099f565b6040516104309190611b64565b60405180910390f35b34801561044557600080fd5b50610460600480360381019061045b9190611880565b6109d8565b005b34801561046e57600080fd5b5061048960048036038101906104849190611b86565b6109fa565b005b34801561049757600080fd5b506104b260048036038101906104ad9190611bc6565b610a16565b005b3480156104c057600080fd5b506104db60048036038101906104d69190611c06565b610a6a565b005b60007f7965db0b000000000000000000000000000000000000000000000000000000007bffffffffffffffffffffffffffffffffffffffffffffffffffffffff1916827bffffffffffffffffffffffffffffffffffffffffffffffffffffffff19161480610550575061054f82610af0565b5b9050919050565b60008054905090565b60008061056b610b5a565b905080600001600084815260200190815260200160002060010154915050919050565b61059782610560565b6105a081610b82565b6105aa8383610b96565b50505050565b7f9b707cd1e6b1b195eadf2d4424d4d6e87acfd23b07c821889e37004532017db481565b7f4e94a7c81bd91b9fc4a2ac6f0ec19a6dd073138ef668d9cf1908c54389d5ae6f81565b610600610c97565b73ffffffffffffffffffffffffffffffffffffffff168173ffffffffffffffffffffffffffffffffffffffff1614610664576040517f6697b23200000000000000000000000000000000000000000000000000000000815260040160405180910390fd5b61066e8282610c9f565b505050565b7f9acc82eb0f989815bf5d34897070c1358afa31c7682f8082652708374a8121dc81565b61069f610da1565b6106a882610e87565b6106b28282610e92565b5050565b60006106c0610fb1565b7f360894a13ba1a3210667c828492db98dca3e2076cc3735a920a3ca505d382bbc60001b905090565b6106f1611038565b8060008190555050565b610703611038565b61070d60006110bf565b565b6000610719611196565b905060008160000160089054906101000a900460ff1615905060008260000160009054906101000a900467ffffffffffffffff1690506000808267ffffffffffffffff161480156107675750825b9050600060018367ffffffffffffffff1614801561079c575060003073ffffffffffffffffffffffffffffffffffffffff163b145b9050811580156107aa575080155b156107e1576040517ff92ee8a900000000000000000000000000000000000000000000000000000000815260040160405180910390fd5b60018560000160006101000a81548167ffffffffffffffff021916908367ffffffffffffffff16021790555083156108315760018560000160086101000a81548160ff0219169083151502179055505b61083a336111aa565b6108426111be565b61084a6111c8565b600160008190555061085f6000801b33610b96565b5083156108bc5760008560000160086101000a81548160ff0219169083151502179055507fc7f505b2f371ae2175ee4913f4499e1f2633a7b5936321eed1cdaeb6115181d260016040516108b39190611c8c565b60405180910390a15b5050505050565b6000806108ce6111d2565b90508060000160009054906101000a900473ffffffffffffffffffffffffffffffffffffffff1691505090565b600080610906610b5a565b905080600001600085815260200190815260200160002060000160008473ffffffffffffffffffffffffffffffffffffffff1673ffffffffffffffffffffffffffffffffffffffff16815260200190815260200160002060009054906101000a900460ff1691505092915050565b7f78163ed90355629b19b39027a4f084c5b980c7566e42930c4bbc98a8acafb9da81565b6000801b81565b6040518060400160405280600581526020017f352e302e3000000000000000000000000000000000000000000000000000000081525081565b6109e182610560565b6109ea81610b82565b6109f48383610c9f565b50505050565b6000801b610a0781610b82565b610a11828461058e565b505050565b3373ffffffffffffffffffffffffffffffffffffffff167f41cb13aaeb4e93188c46ae19705b27a649d4e3f673f22ade808b8463e20454998383604051610a5e929190611ca7565b60405180910390a25050565b610a72611038565b600073ffffffffffffffffffffffffffffffffffffffff168173ffffffffffffffffffffffffffffffffffffffff1603610ae45760006040517f1e4fbdf7000000000000000000000000000000000000000000000000000000008152600401610adb9190611aca565b60405180910390fd5b610aed816110bf565b50565b60007f01ffc9a7000000000000000000000000000000000000000000000000000000007bffffffffffffffffffffffffffffffffffffffffffffffffffffffff1916827bffffffffffffffffffffffffffffffffffffffffffffffffffffffff1916149050919050565b60007f02dd7bc7dec4dceedda775e58dd541e08a116c6c53815c0bd028192f7b626800905090565b610b9381610b8e610c97565b6111fa565b50565b600080610ba1610b5a565b9050610bad84846108fb565b610c8b57600181600001600086815260200190815260200160002060000160008573ffffffffffffffffffffffffffffffffffffffff1673ffffffffffffffffffffffffffffffffffffffff16815260200190815260200160002060006101000a81548160ff021916908315150217905550610c27610c97565b73ffffffffffffffffffffffffffffffffffffffff168373ffffffffffffffffffffffffffffffffffffffff16857f2f8788117e7eff1d82e926ec794901d17c78024a50270940304540a733656f0d60405160405180910390a46001915050610c91565b60009150505b92915050565b600033905090565b600080610caa610b5a565b9050610cb684846108fb565b15610d9557600081600001600086815260200190815260200160002060000160008573ffffffffffffffffffffffffffffffffffffffff1673ffffffffffffffffffffffffffffffffffffffff16815260200190815260200160002060006101000a81548160ff021916908315150217905550610d31610c97565b73ffffffffffffffffffffffffffffffffffffffff168373ffffffffffffffffffffffffffffffffffffffff16857ff6391f5c32d9c69d2a47ea670b442974b53935d1edc7fd64eb21e047a839171b60405160405180910390a46001915050610d9b565b60009150505b92915050565b7f000000000000000000000000000000000000000000000000000000000000000073ffffffffffffffffffffffffffffffffffffffff163073ffffffffffffffffffffffffffffffffffffffff161480610e4e57507f000000000000000000000000000000000000000000000000000000000000000073ffffffffffffffffffffffffffffffffffffffff16610e3561124b565b73ffffffffffffffffffffffffffffffffffffffff1614155b15610e85576040517fe07c8dba00000000000000000000000000000000000000000000000000000000815260040160405180910390fd5b565b610e8f611038565b50565b8173ffffffffffffffffffffffffffffffffffffffff166352d1902d6040518163ffffffff1660e01b8152600401602060405180830381865afa925050508015610efa57506040513d601f19601f82011682018060405250810190610ef79190611ce5565b60015b610f3b57816040517f4c9c8ce3000000000000000000000000000000000000000000000000000000008152600401610f329190611aca565b60405180910390fd5b7f360894a13ba1a3210667c828492db98dca3e2076cc3735a920a3ca505d382bbc60001b8114610fa257806040517faa1d49a4000000000000000000000000000000000000000000000000000000008152600401610f999190611807565b60405180910390fd5b610fac83836112a2565b505050565b7f000000000000000000000000000000000000000000000000000000000000000073ffffffffffffffffffffffffffffffffffffffff163073ffffffffffffffffffffffffffffffffffffffff1614611036576040517fe07c8dba00000000000000000000000000000000000000000000000000000000815260040160405180910390fd5b565b611040610c97565b73ffffffffffffffffffffffffffffffffffffffff1661105e6108c3565b73ffffffffffffffffffffffffffffffffffffffff16146110bd57611081610c97565b6040517f118cdaa70000000000000000000000000000000000000000000000000000000081526004016110b49190611aca565b60405180910390fd5b565b60006110c96111d2565b905060008160000160009054906101000a900473ffffffffffffffffffffffffffffffffffffffff169050828260000160006101000a81548173ffffffffffffffffffffffffffffffffffffffff021916908373ffffffffffffffffffffffffffffffffffffffff1602179055508273ffffffffffffffffffffffffffffffffffffffff168173ffffffffffffffffffffffffffffffffffffffff167f8be0079c531659141344cd1fd0a4f28419497f9722a3daafe3b4186f6b6457e060405160405180910390a3505050565b6000806111a1611315565b90508091505090565b6111b2611340565b6111bb81611380565b50565b6111c6611340565b565b6111d0611340565b565b60007f9016d09d72d40fdae2fd8ceac6b6234c7706214fd39c1cd1e609a0528c199300905090565b61120482826108fb565b6112475780826040517fe2517d3f00000000000000000000000000000000000000000000000000000000815260040161123e929190611d12565b60405180910390fd5b5050565b60006112797f360894a13ba1a3210667c828492db98dca3e2076cc3735a920a3ca505d382bbc60001b611406565b60000160009054906101000a900473ffffffffffffffffffffffffffffffffffffffff16905090565b6112ab82611410565b8173ffffffffffffffffffffffffffffffffffffffff167fbc7cd75a20ee27fd9adebab32041f755214dbc6bffa90cc0225b39da2e5c2d3b60405160405180910390a26000815111156113085761130282826114dd565b50611311565b611310611561565b5b5050565b60007ff0c57e16840df040f15088dc2f81fe391c3923bec73e23a9662efc9c229c6a0060001b905090565b61134861159e565b61137e576040517fd7e6bcf800000000000000000000000000000000000000000000000000000000815260040160405180910390fd5b565b611388611340565b600073ffffffffffffffffffffffffffffffffffffffff168173ffffffffffffffffffffffffffffffffffffffff16036113fa5760006040517f1e4fbdf70000000000000000000000000000000000000000000000000000000081526004016113f19190611aca565b60405180910390fd5b611403816110bf565b50565b6000819050919050565b60008173ffffffffffffffffffffffffffffffffffffffff163b0361146c57806040517f4c9c8ce30000000000000000000000000000000000000000000000000000000081526004016114639190611aca565b60405180910390fd5b806114997f360894a13ba1a3210667c828492db98dca3e2076cc3735a920a3ca505d382bbc60001b611406565b60000160006101000a81548173ffffffffffffffffffffffffffffffffffffffff021916908373ffffffffffffffffffffffffffffffffffffffff16021790555050565b60606000808473ffffffffffffffffffffffffffffffffffffffff16846040516115079190611d82565b600060405180830381855af49150503d8060008114611542576040519150601f19603f3d011682016040523d82523d6000602084013e611547565b606091505b50915091506115578583836115be565b9250505092915050565b600034111561159c576040517fb398979f00000000000000000000000000000000000000000000000000000000815260040160405180910390fd5b565b60006115a8611196565b60000160089054906101000a900460ff16905090565b6060826115d3576115ce8261164d565b611645565b600082511480156115fb575060008473ffffffffffffffffffffffffffffffffffffffff163b145b1561163d57836040517f9996b3150000000000000000000000000000000000000000000000000000000081526004016116349190611aca565b60405180910390fd5b819050611646565b5b9392505050565b6000815111156116605780518082602001fd5b6040517fd6bda27500000000000000000000000000000000000000000000000000000000815260040160405180910390fd5b6000604051905090565b600080fd5b600080fd5b60007fffffffff0000000000000000000000000000000000000000000000000000000082169050919050565b6116db816116a6565b81146116e657600080fd5b50565b6000813590506116f8816116d2565b92915050565b6000602082840312156117145761171361169c565b5b6000611722848285016116e9565b91505092915050565b60008115159050919050565b6117408161172b565b82525050565b600060208201905061175b6000830184611737565b92915050565b6000819050919050565b61177481611761565b82525050565b600060208201905061178f600083018461176b565b92915050565b6000819050919050565b6117a881611795565b81146117b357600080fd5b50565b6000813590506117c58161179f565b92915050565b6000602082840312156117e1576117e061169c565b5b60006117ef848285016117b6565b91505092915050565b61180181611795565b82525050565b600060208201905061181c60008301846117f8565b92915050565b600073ffffffffffffffffffffffffffffffffffffffff82169050919050565b600061184d82611822565b9050919050565b61185d81611842565b811461186857600080fd5b50565b60008135905061187a81611854565b92915050565b600080604083850312156118975761189661169c565b5b60006118a5858286016117b6565b92505060206118b68582860161186b565b9150509250929050565b600080fd5b600080fd5b6000601f19601f8301169050919050565b7f4e487b7100000000000000000000000000000000000000000000000000000000600052604160045260246000fd5b611913826118ca565b810181811067ffffffffffffffff82111715611932576119316118db565b5b80604052505050565b6000611945611692565b9050611951828261190a565b919050565b600067ffffffffffffffff821115611971576119706118db565b5b61197a826118ca565b9050602081019050919050565b82818337600083830152505050565b60006119a96119a484611956565b61193b565b9050828152602081018484840111156119c5576119c46118c5565b5b6119d0848285611987565b509392505050565b600082601f8301126119ed576119ec6118c0565b5b81356119fd848260208601611996565b91505092915050565b60008060408385031215611a1d57611a1c61169c565b5b6000611a2b8582860161186b565b925050602083013567ffffffffffffffff811115611a4c57611a4b6116a1565b5b611a58858286016119d8565b9150509250929050565b611a6b81611761565b8114611a7657600080fd5b50565b600081359050611a8881611a62565b92915050565b600060208284031215611aa457611aa361169c565b5b6000611ab284828501611a79565b91505092915050565b611ac481611842565b82525050565b6000602082019050611adf6000830184611abb565b92915050565b600081519050919050565b600082825260208201905092915050565b60005b83811015611b1f578082015181840152602081019050611b04565b60008484015250505050565b6000611b3682611ae5565b611b408185611af0565b9350611b50818560208601611b01565b611b59816118ca565b840191505092915050565b60006020820190508181036000830152611b7e8184611b2b565b905092915050565b60008060408385031215611b9d57611b9c61169c565b5b6000611bab8582860161186b565b9250506020611bbc858286016117b6565b9150509250929050565b60008060408385031215611bdd57611bdc61169c565b5b6000611beb858286016117b6565b9250506020611bfc858286016117b6565b9150509250929050565b600060208284031215611c1c57611c1b61169c565b5b6000611c2a8482850161186b565b91505092915050565b6000819050919050565b600067ffffffffffffffff82169050919050565b6000819050919050565b6000611c76611c71611c6c84611c33565b611c51565b611c3d565b9050919050565b611c8681611c5b565b82525050565b6000602082019050611ca16000830184611c7d565b92915050565b6000604082019050611cbc60008301856117f8565b611cc960208301846117f8565b9392505050565b600081519050611cdf8161179f565b92915050565b600060208284031215611cfb57611cfa61169c565b5b6000611d0984828501611cd0565b91505092915050565b6000604082019050611d276000830185611abb565b611d3460208301846117f8565b9392505050565b600081519050919050565b600081905092915050565b6000611d5c82611d3b565b611d668185611d46565b9350611d76818560208601611b01565b80840191505092915050565b6000611d8e8284611d51565b91508190509291505056fea2646970667358221220de0a48376d65ec57a0e90a2b9f272169701c1b1b33f9bb4fb3441f64707805eb64736f6c634300081c0033",
  "linkReferences": {},
  "deployedLinkReferences": {}
}